{"abi":[{"type":"constructor","inputs":[{"name":"tokenData","type":"tuple[]","internalType":"struct TokenData[]","components":[{"name":"token","type":"address","internalType":"address"},{"name":"aToken","type":"address","internalType":"address"},{"name":"price","type":"uint256","internalType":"uint256"}]}],"stateMutability":"nonpayable"},{"type":"function","name":"GHO","inputs":[],"outputs":[{"name":"","type":"address","internalType":"contract IGhoToken"}],"stateMutability":"view"},{"type":"function","name":"SABLIER_LOCKUP_LINEAR","inputs":[],"outputs":[{"name":"","type":"address","internalType":"contract ISablierV2LockupLinear"}],"stateMutability":"view"},{"type":"function","name":"borrowGhoThroughStream","inputs":[{"name":"amount","type":"uint128","internalType":"uint128"},{"name":"streamDuration","type":"uint40","internalType":"uint40"},{"name":"streamRecipient","type":"address","internalType":"address"}],"outputs":[{"name":"streamId","type":"uint256","internalType":"uint256"}],"stateMutability":"nonpayable"},{"type":"function","name":"cancelGhoStream","inputs":[{"name":"streamId","type":"uint256","internalType":"uint256"}],"outputs":[],"stateMutability":"nonpayable"},{"type":"function","name":"deposit","inputs":[{"name":"token","type":"address","internalType":"address"},{"name":"amount","type":"uint256","internalType":"uint256"}],"outputs":[],"stateMutability":"nonpayable"},{"type":"function","name":"distributeFeesToTreasury","inputs":[],"outputs":[],"stateMutability":"nonpayable"},{"type":"function","name":"getBorrowerStreamIds","inputs":[{"name":"borrower","type":"address","internalType":"address"}],"outputs":[{"name":"streamIds","type":"uint256[]","internalType":"uint256[]"}],"stateMutability":"view"},{"type":"function","name":"getDepositValue","inputs":[{"name":"user","type":"address","internalType":"address"}],"outputs":[{"name":"","type":"uint256","internalType":"uint256"}],"stateMutability":"view"},{"type":"function","name":"getGhoTreasury","inputs":[],"outputs":[{"name":"","type":"address","internalType":"address"}],"stateMutability":"view"},{"type":"function","name":"getMaxBorrowAmount","inputs":[{"name":"user","type":"address","internalType":"address"}],"outputs":[{"name":"","type":"uint256","internalType":"uint256"}],"stateMutability":"view"},{"type":"function","name":"getNetWorth","inputs":[{"name":"user","type":"address","internalType":"address"}],"outputs":[{"name":"","type":"uint256","internalType":"uint256"}],"stateMutability":"view"},{"type":"function","name":"getRealTimeDebt","inputs":[{"name":"user","type":"address","internalType":"address"}],"outputs":[{"name":"","type":"uint256","internalType":"uint256"}],"stateMutability":"view"},{"type":"function","name":"owner","inputs":[],"outputs":[{"name":"","type":"address","internalType":"address"}],"stateMutability":"view"},{"type":"function","name":"renounceOwnership","inputs":[],"outputs":[],"stateMutability":"nonpayable"},{"type":"function","name":"transferOwnership","inputs":[{"name":"newOwner","type":"address","internalType":"address"}],"outputs":[],"stateMutability":"nonpayable"},{"type":"function","name":"updateGhoTreasury","inputs":[{"name":"newGhoTreasury","type":"address","internalType":"address"}],"outputs":[],"stateMutability":"nonpayable"},{"type":"function","name":"withdraw","inputs":[{"name":"token","type":"address","internalType":"address"},{"name":"amount","type":"uint256","internalType":"uint256"}],"outputs":[],"stateMutability":"nonpayable"},{"type":"event","name":"FeesDistributedToTreasury","inputs":[{"name":"ghoTreasury","type":"address","indexed":true,"internalType":"address"},{"name":"asset","type":"address","indexed":true,"internalType":"address"},{"name":"amount","type":"uint256","indexed":false,"internalType":"uint256"}],"anonymous":false},{"type":"event","name":"GhoTreasuryUpdated","inputs":[{"name":"oldGhoTreasury","type":"address","indexed":true,"internalType":"address"},{"name":"newGhoTreasury","type":"address","indexed":true,"internalType":"address"}],"anonymous":false},{"type":"event","name":"OwnershipTransferred","inputs":[{"name":"previousOwner","type":"address","indexed":true,"internalType":"address"},{"name":"newOwner","type":"address","indexed":true,"internalType":"address"}],"anonymous":false},{"type":"error","name":"OwnableInvalidOwner","inputs":[{"name":"owner","type":"address","internalType":"address"}]},{"type":"error","name":"OwnableUnauthorizedAccount","inputs":[{"name":"account","type":"address","internalType":"address"}]}],"bytecode":{"object":"0x60c06040527378ab1a9c913107d0f989f7802c5981123fb9ba4f608052737a43f8a888fa15e68c103e18b0439eb1e98e430160a0523480156200004157600080fd5b5060405162001fea38038062001fea8339810160408190526200006491620002a8565b33806200008b57604051631e4fbdf760e01b81526000600482015260240160405180910390fd5b6200009681620001c7565b50600180546001600160a01b0319163317905560005b8151811015620001bf57818181518110620000cb57620000cb6200039b565b60200260200101516020015160036000848481518110620000f057620000f06200039b565b6020026020010151600001516001600160a01b03166001600160a01b0316815260200190815260200160002060006101000a8154816001600160a01b0302191690836001600160a01b0316021790555060028282815181106200015757620001576200039b565b602090810291909101810151825460018181018555600094855293839020825160039092020180546001600160a01b039283166001600160a01b03199182161782559383015181860180549190931694169390931790556040015160029091015501620000ac565b5050620003b1565b600080546001600160a01b038381166001600160a01b0319831681178455604051919092169283917f8be0079c531659141344cd1fd0a4f28419497f9722a3daafe3b4186f6b6457e09190a35050565b634e487b7160e01b600052604160045260246000fd5b604051606081016001600160401b038111828210171562000252576200025262000217565b60405290565b604051601f8201601f191681016001600160401b038111828210171562000283576200028362000217565b604052919050565b80516001600160a01b0381168114620002a357600080fd5b919050565b60006020808385031215620002bc57600080fd5b82516001600160401b0380821115620002d457600080fd5b818501915085601f830112620002e957600080fd5b815181811115620002fe57620002fe62000217565b6200030e848260051b0162000258565b818152848101925060609182028401850191888311156200032e57600080fd5b938501935b828510156200038f5780858a0312156200034d5760008081fd5b620003576200022d565b62000362866200028b565b8152620003718787016200028b565b81880152604086810151908201528452938401939285019262000333565b50979650505050505050565b634e487b7160e01b600052603260045260246000fd5b60805160a051611bb8620004326000396000818161022d015281816104510152818161093a015281816109dc01528181610ca001528181610e7c015261149a01526000818161020601528181610ac201528181610de501528181610ebc01528181610fd3015281816110a50152818161113301526113fc0152611bb86000f3fe608060405234801561001057600080fd5b506004361061011b5760003560e01c80638da5cb5b116100b2578063d9643bed11610081578063e28178cc11610066578063e28178cc1461028a578063f2fde38b146102a8578063f3fef3a3146102bb57600080fd5b8063d9643bed1461026f578063dc49a07b1461028257600080fd5b80638da5cb5b146101c2578063b8d008f314610201578063d61d58ac14610228578063d6c5df2c1461024f57600080fd5b806347e7ef24116100ee57806347e7ef24146101815780634b79cb0f14610194578063715018a6146101a75780638309dbe5146101af57600080fd5b80631fde40bb14610120578063254a3a0f146101355780633828a0e61461015b5780633b2e5f941461016e575b600080fd5b61013361012e36600461153f565b6102ce565b005b61014861014336600461153f565b6103cf565b6040519081526020015b60405180910390f35b61014861016936600461153f565b610535565b61014861017c36600461153f565b610559565b61013361018f36600461155c565b6106f3565b6101486101a236600461153f565b61083e565b61013361086a565b6101336101bd366004611588565b61087e565b60005473ffffffffffffffffffffffffffffffffffffffff165b60405173ffffffffffffffffffffffffffffffffffffffff9091168152602001610152565b6101dc7f000000000000000000000000000000000000000000000000000000000000000081565b6101dc7f000000000000000000000000000000000000000000000000000000000000000081565b61026261025d36600461153f565b610b22565b60405161015291906115a1565b61014861027d366004611616565b610b9b565b610133610fa2565b60015473ffffffffffffffffffffffffffffffffffffffff166101dc565b6101336102b636600461153f565b611187565b6101336102c936600461155c565b6111eb565b6102d66112ec565b73ffffffffffffffffffffffffffffffffffffffff8116610358576040517f08c379a000000000000000000000000000000000000000000000000000000000815260206004820152601660248201527f5a45524f5f414444524553535f4e4f545f56414c49440000000000000000000060448201526064015b60405180910390fd5b6001805473ffffffffffffffffffffffffffffffffffffffff8381167fffffffffffffffffffffffff0000000000000000000000000000000000000000831681179093556040519116919082907f13f4413d8d93a259bd6c10f35095371f30ed50f81a73407e52e9f02000d5d16b90600090a35050565b73ffffffffffffffffffffffffffffffffffffffff811660009081526004602090815260408083208054825181850281018501909352808352849383018282801561043957602002820191906000526020600020905b815481526020019060010190808311610425575b505050505090506000805b825181101561052d5760007f000000000000000000000000000000000000000000000000000000000000000073ffffffffffffffffffffffffffffffffffffffff16634869e12d85848151811061049d5761049d611661565b60200260200101516040518263ffffffff1660e01b81526004016104c391815260200190565b602060405180830381865afa1580156104e0573d6000803e3d6000fd5b505050506040513d601f19601f820116820180604052508101906105049190611690565b90506105226fffffffffffffffffffffffffffffffff8216846116dc565b925050600101610444565b509392505050565b6000610540826103cf565b61054983610559565b61055391906116ef565b92915050565b60025460009081805b8281101561052d5760006002828154811061057f5761057f611661565b60009182526020822060039190910201600101546040517f70a0823100000000000000000000000000000000000000000000000000000000815273ffffffffffffffffffffffffffffffffffffffff8981166004830152909116925082906370a0823190602401602060405180830381865afa158015610603573d6000803e3d6000fd5b505050506040513d601f19601f820116820180604052508101906106279190611702565b90508173ffffffffffffffffffffffffffffffffffffffff1663313ce5676040518163ffffffff1660e01b8152600401602060405180830381865afa158015610674573d6000803e3d6000fd5b505050506040513d601f19601f82011682018060405250810190610698919061171b565b6106a390600a61185e565b600284815481106106b6576106b6611661565b906000526020600020906003020160020154826106d3919061186d565b6106dd9190611884565b6106e790856116dc565b93505050600101610562565b73ffffffffffffffffffffffffffffffffffffffff8281166000908152600360205260408082205490517fb3f1c93d000000000000000000000000000000000000000000000000000000008152336004820181905260248201526044810185905260648101929092529091169063b3f1c93d90608401600060405180830381600087803b15801561078357600080fd5b505af1158015610797573d6000803e3d6000fd5b50506040517f23b872dd0000000000000000000000000000000000000000000000000000000081523360048201523060248201526044810184905273ffffffffffffffffffffffffffffffffffffffff851692506323b872dd91506064015b6020604051808303816000875af1158015610815573d6000803e3d6000fd5b505050506040513d601f19601f8201168201806040525081019061083991906118d4565b505050565b60008061084a83610535565b9050606461085982605061186d565b6108639190611884565b9392505050565b6108726112ec565b61087c600061133f565b565b60008181526005602052604090205473ffffffffffffffffffffffffffffffffffffffff16331461090b576040517f08c379a000000000000000000000000000000000000000000000000000000000815260206004820152600c60248201527f4e6f7420626f72726f7765720000000000000000000000000000000000000000604482015260640161034f565b6040517f40e58ee5000000000000000000000000000000000000000000000000000000008152600481018290527f000000000000000000000000000000000000000000000000000000000000000073ffffffffffffffffffffffffffffffffffffffff16906340e58ee590602401600060405180830381600087803b15801561099357600080fd5b505af11580156109a7573d6000803e3d6000fd5b50506040517f894e9a0d00000000000000000000000000000000000000000000000000000000815260048101849052600092507f000000000000000000000000000000000000000000000000000000000000000073ffffffffffffffffffffffffffffffffffffffff16915063894e9a0d906024016101a060405180830381865afa158015610a3a573d6000803e3d6000fd5b505050506040513d601f19601f82011682018060405250810190610a5e91906119f5565b61014081015160409081015190517f42966c680000000000000000000000000000000000000000000000000000000081526fffffffffffffffffffffffffffffffff909116600482015290915073ffffffffffffffffffffffffffffffffffffffff7f000000000000000000000000000000000000000000000000000000000000000016906342966c6890602401600060405180830381600087803b158015610b0657600080fd5b505af1158015610b1a573d6000803e3d6000fd5b505050505050565b73ffffffffffffffffffffffffffffffffffffffff8116600090815260046020908152604091829020805483518184028101840190945280845260609392830182828015610b8f57602002820191906000526020600020905b815481526020019060010190808311610b7b575b50505050509050919050565b600080846fffffffffffffffffffffffffffffffff1611610c18576040517f08c379a000000000000000000000000000000000000000000000000000000000815260206004820152601d60248201527f416d6f756e74206d7573742062652067726561746572207468616e2030000000604482015260640161034f565b610c213361083e565b846fffffffffffffffffffffffffffffffff161115610c9c576040517f08c379a000000000000000000000000000000000000000000000000000000000815260206004820152601960248201527f45786365656473206d617820626f72726f7720616d6f756e7400000000000000604482015260640161034f565b60007f000000000000000000000000000000000000000000000000000000000000000073ffffffffffffffffffffffffffffffffffffffff16631e99d5696040518163ffffffff1660e01b8152600401602060405180830381865afa158015610d09573d6000803e3d6000fd5b505050506040513d601f19601f82011682018060405250810190610d2d9190611702565b33600081815260046020818152604080842080546001810182559085528285200186905585845260059091529182902080547fffffffffffffffffffffffff000000000000000000000000000000000000000016909317909255517f40c10f1900000000000000000000000000000000000000000000000000000000815230918101919091526fffffffffffffffffffffffffffffffff8716602482015290915073ffffffffffffffffffffffffffffffffffffffff7f000000000000000000000000000000000000000000000000000000000000000016906340c10f1990604401600060405180830381600087803b158015610e2957600080fd5b505af1158015610e3d573d6000803e3d6000fd5b50506040517f095ea7b300000000000000000000000000000000000000000000000000000000815273ffffffffffffffffffffffffffffffffffffffff7f0000000000000000000000000000000000000000000000000000000000000000811660048301526fffffffffffffffffffffffffffffffff891660248301527f000000000000000000000000000000000000000000000000000000000000000016925063095ea7b391506044016020604051808303816000875af1158015610f07573d6000803e3d6000fd5b505050506040513d601f19601f82011682018060405250810190610f2b91906118d4565b50610f378585856113b4565b915080821461052d576040517f08c379a000000000000000000000000000000000000000000000000000000000815260206004820152601160248201527f53747265616d4964206d69736d61746368000000000000000000000000000000604482015260640161034f565b6040517f70a082310000000000000000000000000000000000000000000000000000000081523060048201526000907f000000000000000000000000000000000000000000000000000000000000000073ffffffffffffffffffffffffffffffffffffffff16906370a0823190602401602060405180830381865afa15801561102f573d6000803e3d6000fd5b505050506040513d601f19601f820116820180604052508101906110539190611702565b6001546040517fa9059cbb00000000000000000000000000000000000000000000000000000000815273ffffffffffffffffffffffffffffffffffffffff9182166004820152602481018390529192507f0000000000000000000000000000000000000000000000000000000000000000169063a9059cbb906044016020604051808303816000875af11580156110ee573d6000803e3d6000fd5b505050506040513d601f19601f8201168201806040525081019061111291906118d4565b5060015460405182815273ffffffffffffffffffffffffffffffffffffffff7f000000000000000000000000000000000000000000000000000000000000000081169216907fb29fcda740927812f5a71075b62e132bead3769a455319c29b9a1cc461a654759060200160405180910390a350565b61118f6112ec565b73ffffffffffffffffffffffffffffffffffffffff81166111df576040517f1e4fbdf70000000000000000000000000000000000000000000000000000000081526000600482015260240161034f565b6111e88161133f565b50565b73ffffffffffffffffffffffffffffffffffffffff8281166000908152600360205260408082205490517fd7020d0a000000000000000000000000000000000000000000000000000000008152336004820181905260248201526044810185905260648101929092529091169063d7020d0a90608401600060405180830381600087803b15801561127b57600080fd5b505af115801561128f573d6000803e3d6000fd5b50506040517fa9059cbb0000000000000000000000000000000000000000000000000000000081523360048201526024810184905273ffffffffffffffffffffffffffffffffffffffff8516925063a9059cbb91506044016107f6565b60005473ffffffffffffffffffffffffffffffffffffffff16331461087c576040517f118cdaa700000000000000000000000000000000000000000000000000000000815233600482015260240161034f565b6000805473ffffffffffffffffffffffffffffffffffffffff8381167fffffffffffffffffffffffff0000000000000000000000000000000000000000831681178455604051919092169283917f8be0079c531659141344cd1fd0a4f28419497f9722a3daafe3b4186f6b6457e09190a35050565b604080516101008101825230815273ffffffffffffffffffffffffffffffffffffffff8381166020808401919091526fffffffffffffffffffffffffffffffff8716838501527f00000000000000000000000000000000000000000000000000000000000000008216606084015260016080840181905260a0840181905284518086018652600080825264ffffffffff89168285015260c086019190915285518087018752915484168252662386f26fc100009282019290925260e084015292517fab167ccc0000000000000000000000000000000000000000000000000000000081527f00000000000000000000000000000000000000000000000000000000000000009091169063ab167ccc906114d1908490600401611ad0565b6020604051808303816000875af11580156114f0573d6000803e3d6000fd5b505050506040513d601f19601f820116820180604052508101906115149190611702565b95945050505050565b73ffffffffffffffffffffffffffffffffffffffff811681146111e857600080fd5b60006020828403121561155157600080fd5b81356108638161151d565b6000806040838503121561156f57600080fd5b823561157a8161151d565b946020939093013593505050565b60006020828403121561159a57600080fd5b5035919050565b6020808252825182820181905260009190848201906040850190845b818110156115d9578351835292840192918401916001016115bd565b50909695505050505050565b6fffffffffffffffffffffffffffffffff811681146111e857600080fd5b64ffffffffff811681146111e857600080fd5b60008060006060848603121561162b57600080fd5b8335611636816115e5565b9250602084013561164681611603565b915060408401356116568161151d565b809150509250925092565b7f4e487b7100000000000000000000000000000000000000000000000000000000600052603260045260246000fd5b6000602082840312156116a257600080fd5b8151610863816115e5565b7f4e487b7100000000000000000000000000000000000000000000000000000000600052601160045260246000fd5b80820180821115610553576105536116ad565b81810381811115610553576105536116ad565b60006020828403121561171457600080fd5b5051919050565b60006020828403121561172d57600080fd5b815160ff8116811461086357600080fd5b600181815b8085111561179757817fffffffffffffffffffffffffffffffffffffffffffffffffffffffffffffffff0482111561177d5761177d6116ad565b8085161561178a57918102915b93841c9390800290611743565b509250929050565b6000826117ae57506001610553565b816117bb57506000610553565b81600181146117d157600281146117db576117f7565b6001915050610553565b60ff8411156117ec576117ec6116ad565b50506001821b610553565b5060208310610133831016604e8410600b841016171561181a575081810a610553565b611824838361173e565b807fffffffffffffffffffffffffffffffffffffffffffffffffffffffffffffffff04821115611856576118566116ad565b029392505050565b600061086360ff84168361179f565b8082028115828204841417610553576105536116ad565b6000826118ba577f4e487b7100000000000000000000000000000000000000000000000000000000600052601260045260246000fd5b500490565b805180151581146118cf57600080fd5b919050565b6000602082840312156118e657600080fd5b610863826118bf565b604051610160810167ffffffffffffffff8111828210171561193a577f4e487b7100000000000000000000000000000000000000000000000000000000600052604160045260246000fd5b60405290565b80516118cf8161151d565b80516118cf81611603565b60006060828403121561196857600080fd5b6040516060810181811067ffffffffffffffff821117156119b2577f4e487b7100000000000000000000000000000000000000000000000000000000600052604160045260246000fd5b806040525080915082516119c5816115e5565b815260208301516119d5816115e5565b602082015260408301516119e8816115e5565b6040919091015292915050565b60006101a08284031215611a0857600080fd5b611a106118ef565b611a1983611940565b8152611a276020840161194b565b6020820152611a386040840161194b565b6040820152611a49606084016118bf565b6060820152611a5a608084016118bf565b6080820152611a6b60a08401611940565b60a0820152611a7c60c0840161194b565b60c0820152611a8d60e084016118bf565b60e0820152610100611aa08185016118bf565b90820152610120611ab28482016118bf565b90820152610140611ac585858301611956565b908201529392505050565b60006101408201905073ffffffffffffffffffffffffffffffffffffffff8084511683528060208501511660208401526fffffffffffffffffffffffffffffffff6040850151166040840152806060850151166060840152506080830151611b3c608084018215159052565b5060a0830151611b5060a084018215159052565b5060c0830151611b7760c0840182805164ffffffffff908116835260209182015116910152565b5060e09290920151805173ffffffffffffffffffffffffffffffffffffffff1661010083015260200151610120909101529056fea164736f6c6343000817000a","linkReferences":{}},"methodIdentifiers":{"GHO()":"b8d008f3","SABLIER_LOCKUP_LINEAR()":"d61d58ac","borrowGhoThroughStream(uint128,uint40,address)":"d9643bed","cancelGhoStream(uint256)":"8309dbe5","deposit(address,uint256)":"47e7ef24","distributeFeesToTreasury()":"dc49a07b","getBorrowerStreamIds(address)":"d6c5df2c","getDepositValue(address)":"3b2e5f94","getGhoTreasury()":"e28178cc","getMaxBorrowAmount(address)":"4b79cb0f","getNetWorth(address)":"3828a0e6","getRealTimeDebt(address)":"254a3a0f","owner()":"8da5cb5b","renounceOwnership()":"715018a6","transferOwnership(address)":"f2fde38b","updateGhoTreasury(address)":"1fde40bb","withdraw(address,uint256)":"f3fef3a3"},"id":93}