{"abi":[{"type":"constructor","inputs":[{"name":"tokenData","type":"tuple[]","internalType":"struct TokenData[]","components":[{"name":"token","type":"address","internalType":"address"},{"name":"aToken","type":"address","internalType":"address"},{"name":"price","type":"uint256","internalType":"uint256"}]}],"stateMutability":"nonpayable"},{"type":"function","name":"GHO","inputs":[],"outputs":[{"name":"","type":"address","internalType":"contract IGhoToken"}],"stateMutability":"view"},{"type":"function","name":"SABLIER_LOCKUP_LINEAR","inputs":[],"outputs":[{"name":"","type":"address","internalType":"contract ISablierV2LockupLinear"}],"stateMutability":"view"},{"type":"function","name":"borrowGhoThroughStream","inputs":[{"name":"amount","type":"uint128","internalType":"uint128"},{"name":"streamDuration","type":"uint40","internalType":"uint40"},{"name":"streamRecipient","type":"address","internalType":"address"}],"outputs":[{"name":"streamId","type":"uint256","internalType":"uint256"}],"stateMutability":"nonpayable"},{"type":"function","name":"cancelGhoStream","inputs":[{"name":"streamId","type":"uint256","internalType":"uint256"}],"outputs":[],"stateMutability":"nonpayable"},{"type":"function","name":"deposit","inputs":[{"name":"token","type":"address","internalType":"address"},{"name":"amount","type":"uint256","internalType":"uint256"}],"outputs":[],"stateMutability":"nonpayable"},{"type":"function","name":"distributeFeesToTreasury","inputs":[],"outputs":[],"stateMutability":"nonpayable"},{"type":"function","name":"getBorrowerStreamIds","inputs":[{"name":"borrower","type":"address","internalType":"address"}],"outputs":[{"name":"streamIds","type":"uint256[]","internalType":"uint256[]"}],"stateMutability":"view"},{"type":"function","name":"getGhoTreasury","inputs":[],"outputs":[{"name":"","type":"address","internalType":"address"}],"stateMutability":"view"},{"type":"function","name":"getMaxBorrowAmount","inputs":[{"name":"user","type":"address","internalType":"address"}],"outputs":[{"name":"","type":"uint256","internalType":"uint256"}],"stateMutability":"view"},{"type":"function","name":"getNetWorth","inputs":[{"name":"user","type":"address","internalType":"address"}],"outputs":[{"name":"","type":"uint256","internalType":"uint256"}],"stateMutability":"view"},{"type":"function","name":"owner","inputs":[],"outputs":[{"name":"","type":"address","internalType":"address"}],"stateMutability":"view"},{"type":"function","name":"renounceOwnership","inputs":[],"outputs":[],"stateMutability":"nonpayable"},{"type":"function","name":"transferOwnership","inputs":[{"name":"newOwner","type":"address","internalType":"address"}],"outputs":[],"stateMutability":"nonpayable"},{"type":"function","name":"updateGhoTreasury","inputs":[{"name":"newGhoTreasury","type":"address","internalType":"address"}],"outputs":[],"stateMutability":"nonpayable"},{"type":"function","name":"withdraw","inputs":[{"name":"token","type":"address","internalType":"address"},{"name":"amount","type":"uint256","internalType":"uint256"}],"outputs":[],"stateMutability":"nonpayable"},{"type":"event","name":"FeesDistributedToTreasury","inputs":[{"name":"ghoTreasury","type":"address","indexed":true,"internalType":"address"},{"name":"asset","type":"address","indexed":true,"internalType":"address"},{"name":"amount","type":"uint256","indexed":false,"internalType":"uint256"}],"anonymous":false},{"type":"event","name":"GhoTreasuryUpdated","inputs":[{"name":"oldGhoTreasury","type":"address","indexed":true,"internalType":"address"},{"name":"newGhoTreasury","type":"address","indexed":true,"internalType":"address"}],"anonymous":false},{"type":"event","name":"OwnershipTransferred","inputs":[{"name":"previousOwner","type":"address","indexed":true,"internalType":"address"},{"name":"newOwner","type":"address","indexed":true,"internalType":"address"}],"anonymous":false},{"type":"error","name":"OwnableInvalidOwner","inputs":[{"name":"owner","type":"address","internalType":"address"}]},{"type":"error","name":"OwnableUnauthorizedAccount","inputs":[{"name":"account","type":"address","internalType":"address"}]}],"bytecode":{"object":"0x60c06040527378ab1a9c913107d0f989f7802c5981123fb9ba4f608052737a43f8a888fa15e68c103e18b0439eb1e98e430160a0523480156200004157600080fd5b5060405162001ce738038062001ce78339810160408190526200006491620002a8565b33806200008b57604051631e4fbdf760e01b81526000600482015260240160405180910390fd5b6200009681620001c7565b50600180546001600160a01b0319163317905560005b8151811015620001bf57818181518110620000cb57620000cb6200039b565b60200260200101516020015160036000848481518110620000f057620000f06200039b565b6020026020010151600001516001600160a01b03166001600160a01b0316815260200190815260200160002060006101000a8154816001600160a01b0302191690836001600160a01b0316021790555060028282815181106200015757620001576200039b565b602090810291909101810151825460018181018555600094855293839020825160039092020180546001600160a01b039283166001600160a01b03199182161782559383015181860180549190931694169390931790556040015160029091015501620000ac565b5050620003b1565b600080546001600160a01b038381166001600160a01b0319831681178455604051919092169283917f8be0079c531659141344cd1fd0a4f28419497f9722a3daafe3b4186f6b6457e09190a35050565b634e487b7160e01b600052604160045260246000fd5b604051606081016001600160401b038111828210171562000252576200025262000217565b60405290565b604051601f8201601f191681016001600160401b038111828210171562000283576200028362000217565b604052919050565b80516001600160a01b0381168114620002a357600080fd5b919050565b60006020808385031215620002bc57600080fd5b82516001600160401b0380821115620002d457600080fd5b818501915085601f830112620002e957600080fd5b815181811115620002fe57620002fe62000217565b6200030e848260051b0162000258565b818152848101925060609182028401850191888311156200032e57600080fd5b938501935b828510156200038f5780858a0312156200034d5760008081fd5b620003576200022d565b62000362866200028b565b8152620003718787016200028b565b81880152604086810151908201528452938401939285019262000333565b50979650505050505050565b634e487b7160e01b600052603260045260246000fd5b60805160a0516118bc6200042b600039600081816101e10152818161076c0152818161080e015281816109d201528181610bae01526111cc0152600081816101ba015281816108f401528181610b1701528181610bee01528181610d0501528181610dd701528181610e65015261112e01526118bc6000f3fe608060405234801561001057600080fd5b50600436106100f55760003560e01c8063b8d008f311610097578063dc49a07b11610066578063dc49a07b14610236578063e28178cc1461023e578063f2fde38b1461025c578063f3fef3a31461026f57600080fd5b8063b8d008f3146101b5578063d61d58ac146101dc578063d6c5df2c14610203578063d9643bed1461022357600080fd5b80634b79cb0f116100d35780634b79cb0f14610148578063715018a61461015b5780638309dbe5146101635780638da5cb5b1461017657600080fd5b80631fde40bb146100fa5780633828a0e61461010f57806347e7ef2414610135575b600080fd5b61010d610108366004611271565b610282565b005b61012261011d366004611271565b610383565b6040519081526020015b60405180910390f35b61010d61014336600461128e565b610525565b610122610156366004611271565b610670565b61010d61069c565b61010d6101713660046112ba565b6106b0565b60005473ffffffffffffffffffffffffffffffffffffffff165b60405173ffffffffffffffffffffffffffffffffffffffff909116815260200161012c565b6101907f000000000000000000000000000000000000000000000000000000000000000081565b6101907f000000000000000000000000000000000000000000000000000000000000000081565b610216610211366004611271565b610954565b60405161012c91906112d3565b610122610231366004611348565b6109cd565b61010d610cd4565b60015473ffffffffffffffffffffffffffffffffffffffff16610190565b61010d61026a366004611271565b610eb9565b61010d61027d36600461128e565b610f1d565b61028a61101e565b73ffffffffffffffffffffffffffffffffffffffff811661030c576040517f08c379a000000000000000000000000000000000000000000000000000000000815260206004820152601660248201527f5a45524f5f414444524553535f4e4f545f56414c49440000000000000000000060448201526064015b60405180910390fd5b6001805473ffffffffffffffffffffffffffffffffffffffff8381167fffffffffffffffffffffffff0000000000000000000000000000000000000000831681179093556040519116919082907f13f4413d8d93a259bd6c10f35095371f30ed50f81a73407e52e9f02000d5d16b90600090a35050565b60025460009081805b8281101561051d576000600282815481106103a9576103a9611393565b60009182526020822060039190910201600101546040517f70a0823100000000000000000000000000000000000000000000000000000000815273ffffffffffffffffffffffffffffffffffffffff8981166004830152909116925082906370a0823190602401602060405180830381865afa15801561042d573d6000803e3d6000fd5b505050506040513d601f19601f8201168201806040525081019061045191906113c2565b90508173ffffffffffffffffffffffffffffffffffffffff1663313ce5676040518163ffffffff1660e01b8152600401602060405180830381865afa15801561049e573d6000803e3d6000fd5b505050506040513d601f19601f820116820180604052508101906104c291906113db565b6104cd90600a61154f565b600284815481106104e0576104e0611393565b906000526020600020906003020160020154826104fd919061155e565b6105079190611575565b61051190856115b0565b9350505060010161038c565b509392505050565b73ffffffffffffffffffffffffffffffffffffffff8281166000908152600360205260408082205490517fb3f1c93d000000000000000000000000000000000000000000000000000000008152336004820181905260248201526044810185905260648101929092529091169063b3f1c93d90608401600060405180830381600087803b1580156105b557600080fd5b505af11580156105c9573d6000803e3d6000fd5b50506040517f23b872dd0000000000000000000000000000000000000000000000000000000081523360048201523060248201526044810184905273ffffffffffffffffffffffffffffffffffffffff851692506323b872dd91506064015b6020604051808303816000875af1158015610647573d6000803e3d6000fd5b505050506040513d601f19601f8201168201806040525081019061066b91906115d8565b505050565b60008061067c83610383565b9050606461068b82605061155e565b6106959190611575565b9392505050565b6106a461101e565b6106ae6000611071565b565b60008181526005602052604090205473ffffffffffffffffffffffffffffffffffffffff16331461073d576040517f08c379a000000000000000000000000000000000000000000000000000000000815260206004820152600c60248201527f4e6f7420626f72726f77657200000000000000000000000000000000000000006044820152606401610303565b6040517f40e58ee5000000000000000000000000000000000000000000000000000000008152600481018290527f000000000000000000000000000000000000000000000000000000000000000073ffffffffffffffffffffffffffffffffffffffff16906340e58ee590602401600060405180830381600087803b1580156107c557600080fd5b505af11580156107d9573d6000803e3d6000fd5b50506040517f894e9a0d00000000000000000000000000000000000000000000000000000000815260048101849052600092507f000000000000000000000000000000000000000000000000000000000000000073ffffffffffffffffffffffffffffffffffffffff16915063894e9a0d906024016101a060405180830381865afa15801561086c573d6000803e3d6000fd5b505050506040513d601f19601f8201168201806040525081019061089091906116f9565b61014081015160409081015190517f42966c680000000000000000000000000000000000000000000000000000000081526fffffffffffffffffffffffffffffffff909116600482015290915073ffffffffffffffffffffffffffffffffffffffff7f000000000000000000000000000000000000000000000000000000000000000016906342966c6890602401600060405180830381600087803b15801561093857600080fd5b505af115801561094c573d6000803e3d6000fd5b505050505050565b73ffffffffffffffffffffffffffffffffffffffff81166000908152600460209081526040918290208054835181840281018401909452808452606093928301828280156109c157602002820191906000526020600020905b8154815260200190600101908083116109ad575b50505050509050919050565b6000807f000000000000000000000000000000000000000000000000000000000000000073ffffffffffffffffffffffffffffffffffffffff16631e99d5696040518163ffffffff1660e01b8152600401602060405180830381865afa158015610a3b573d6000803e3d6000fd5b505050506040513d601f19601f82011682018060405250810190610a5f91906113c2565b33600081815260046020818152604080842080546001810182559085528285200186905585845260059091529182902080547fffffffffffffffffffffffff000000000000000000000000000000000000000016909317909255517f40c10f1900000000000000000000000000000000000000000000000000000000815230918101919091526fffffffffffffffffffffffffffffffff8716602482015290915073ffffffffffffffffffffffffffffffffffffffff7f000000000000000000000000000000000000000000000000000000000000000016906340c10f1990604401600060405180830381600087803b158015610b5b57600080fd5b505af1158015610b6f573d6000803e3d6000fd5b50506040517f095ea7b300000000000000000000000000000000000000000000000000000000815273ffffffffffffffffffffffffffffffffffffffff7f0000000000000000000000000000000000000000000000000000000000000000811660048301526fffffffffffffffffffffffffffffffff891660248301527f000000000000000000000000000000000000000000000000000000000000000016925063095ea7b391506044016020604051808303816000875af1158015610c39573d6000803e3d6000fd5b505050506040513d601f19601f82011682018060405250810190610c5d91906115d8565b50610c698585856110e6565b915080821461051d576040517f08c379a000000000000000000000000000000000000000000000000000000000815260206004820152601160248201527f53747265616d4964206d69736d617463680000000000000000000000000000006044820152606401610303565b6040517f70a082310000000000000000000000000000000000000000000000000000000081523060048201526000907f000000000000000000000000000000000000000000000000000000000000000073ffffffffffffffffffffffffffffffffffffffff16906370a0823190602401602060405180830381865afa158015610d61573d6000803e3d6000fd5b505050506040513d601f19601f82011682018060405250810190610d8591906113c2565b6001546040517fa9059cbb00000000000000000000000000000000000000000000000000000000815273ffffffffffffffffffffffffffffffffffffffff9182166004820152602481018390529192507f0000000000000000000000000000000000000000000000000000000000000000169063a9059cbb906044016020604051808303816000875af1158015610e20573d6000803e3d6000fd5b505050506040513d601f19601f82011682018060405250810190610e4491906115d8565b5060015460405182815273ffffffffffffffffffffffffffffffffffffffff7f000000000000000000000000000000000000000000000000000000000000000081169216907fb29fcda740927812f5a71075b62e132bead3769a455319c29b9a1cc461a654759060200160405180910390a350565b610ec161101e565b73ffffffffffffffffffffffffffffffffffffffff8116610f11576040517f1e4fbdf700000000000000000000000000000000000000000000000000000000815260006004820152602401610303565b610f1a81611071565b50565b73ffffffffffffffffffffffffffffffffffffffff8281166000908152600360205260408082205490517fd7020d0a000000000000000000000000000000000000000000000000000000008152336004820181905260248201526044810185905260648101929092529091169063d7020d0a90608401600060405180830381600087803b158015610fad57600080fd5b505af1158015610fc1573d6000803e3d6000fd5b50506040517fa9059cbb0000000000000000000000000000000000000000000000000000000081523360048201526024810184905273ffffffffffffffffffffffffffffffffffffffff8516925063a9059cbb9150604401610628565b60005473ffffffffffffffffffffffffffffffffffffffff1633146106ae576040517f118cdaa7000000000000000000000000000000000000000000000000000000008152336004820152602401610303565b6000805473ffffffffffffffffffffffffffffffffffffffff8381167fffffffffffffffffffffffff0000000000000000000000000000000000000000831681178455604051919092169283917f8be0079c531659141344cd1fd0a4f28419497f9722a3daafe3b4186f6b6457e09190a35050565b604080516101008101825230815273ffffffffffffffffffffffffffffffffffffffff8381166020808401919091526fffffffffffffffffffffffffffffffff8716838501527f00000000000000000000000000000000000000000000000000000000000000008216606084015260016080840181905260a0840181905284518086018652600080825264ffffffffff89168285015260c086019190915285518087018752915484168252662386f26fc100009282019290925260e084015292517fab167ccc0000000000000000000000000000000000000000000000000000000081527f00000000000000000000000000000000000000000000000000000000000000009091169063ab167ccc906112039084906004016117d4565b6020604051808303816000875af1158015611222573d6000803e3d6000fd5b505050506040513d601f19601f8201168201806040525081019061124691906113c2565b95945050505050565b73ffffffffffffffffffffffffffffffffffffffff81168114610f1a57600080fd5b60006020828403121561128357600080fd5b81356106958161124f565b600080604083850312156112a157600080fd5b82356112ac8161124f565b946020939093013593505050565b6000602082840312156112cc57600080fd5b5035919050565b6020808252825182820181905260009190848201906040850190845b8181101561130b578351835292840192918401916001016112ef565b50909695505050505050565b6fffffffffffffffffffffffffffffffff81168114610f1a57600080fd5b64ffffffffff81168114610f1a57600080fd5b60008060006060848603121561135d57600080fd5b833561136881611317565b9250602084013561137881611335565b915060408401356113888161124f565b809150509250925092565b7f4e487b7100000000000000000000000000000000000000000000000000000000600052603260045260246000fd5b6000602082840312156113d457600080fd5b5051919050565b6000602082840312156113ed57600080fd5b815160ff8116811461069557600080fd5b7f4e487b7100000000000000000000000000000000000000000000000000000000600052601160045260246000fd5b600181815b8085111561148657817fffffffffffffffffffffffffffffffffffffffffffffffffffffffffffffffff0482111561146c5761146c6113fe565b8085161561147957918102915b93841c9390800290611432565b509250929050565b60008261149d57506001611549565b816114aa57506000611549565b81600181146114c057600281146114ca576114e6565b6001915050611549565b60ff8411156114db576114db6113fe565b50506001821b611549565b5060208310610133831016604e8410600b8410161715611509575081810a611549565b611513838361142d565b807fffffffffffffffffffffffffffffffffffffffffffffffffffffffffffffffff04821115611545576115456113fe565b0290505b92915050565b600061069560ff84168361148e565b8082028115828204841417611549576115496113fe565b6000826115ab577f4e487b7100000000000000000000000000000000000000000000000000000000600052601260045260246000fd5b500490565b80820180821115611549576115496113fe565b805180151581146115d357600080fd5b919050565b6000602082840312156115ea57600080fd5b610695826115c3565b604051610160810167ffffffffffffffff8111828210171561163e577f4e487b7100000000000000000000000000000000000000000000000000000000600052604160045260246000fd5b60405290565b80516115d38161124f565b80516115d381611335565b60006060828403121561166c57600080fd5b6040516060810181811067ffffffffffffffff821117156116b6577f4e487b7100000000000000000000000000000000000000000000000000000000600052604160045260246000fd5b806040525080915082516116c981611317565b815260208301516116d981611317565b602082015260408301516116ec81611317565b6040919091015292915050565b60006101a0828403121561170c57600080fd5b6117146115f3565b61171d83611644565b815261172b6020840161164f565b602082015261173c6040840161164f565b604082015261174d606084016115c3565b606082015261175e608084016115c3565b608082015261176f60a08401611644565b60a082015261178060c0840161164f565b60c082015261179160e084016115c3565b60e08201526101006117a48185016115c3565b908201526101206117b68482016115c3565b908201526101406117c98585830161165a565b908201529392505050565b60006101408201905073ffffffffffffffffffffffffffffffffffffffff8084511683528060208501511660208401526fffffffffffffffffffffffffffffffff6040850151166040840152806060850151166060840152506080830151611840608084018215159052565b5060a083015161185460a084018215159052565b5060c083015161187b60c0840182805164ffffffffff908116835260209182015116910152565b5060e09290920151805173ffffffffffffffffffffffffffffffffffffffff1661010083015260200151610120909101529056fea164736f6c6343000817000a","linkReferences":{}},"methodIdentifiers":{"GHO()":"b8d008f3","SABLIER_LOCKUP_LINEAR()":"d61d58ac","borrowGhoThroughStream(uint128,uint40,address)":"d9643bed","cancelGhoStream(uint256)":"8309dbe5","deposit(address,uint256)":"47e7ef24","distributeFeesToTreasury()":"dc49a07b","getBorrowerStreamIds(address)":"d6c5df2c","getGhoTreasury()":"e28178cc","getMaxBorrowAmount(address)":"4b79cb0f","getNetWorth(address)":"3828a0e6","owner()":"8da5cb5b","renounceOwnership()":"715018a6","transferOwnership(address)":"f2fde38b","updateGhoTreasury(address)":"1fde40bb","withdraw(address,uint256)":"f3fef3a3"},"id":93}