{"abi":[{"type":"constructor","inputs":[{"name":"tokens","type":"address[]","internalType":"contract IERC20[]"},{"name":"aTokens","type":"address[]","internalType":"address[]"}],"stateMutability":"nonpayable"},{"type":"function","name":"GHO","inputs":[],"outputs":[{"name":"","type":"address","internalType":"contract IGhoToken"}],"stateMutability":"view"},{"type":"function","name":"SABLIER_LOCKUP_LINEAR","inputs":[],"outputs":[{"name":"","type":"address","internalType":"contract ISablierV2LockupLinear"}],"stateMutability":"view"},{"type":"function","name":"aTokenOf","inputs":[{"name":"token","type":"address","internalType":"contract IERC20"}],"outputs":[{"name":"aToken","type":"address","internalType":"address"}],"stateMutability":"view"},{"type":"function","name":"borrowGhoThroughStream","inputs":[{"name":"amount","type":"uint128","internalType":"uint128"},{"name":"streamDuration","type":"uint40","internalType":"uint40"},{"name":"streamRecipient","type":"address","internalType":"address"}],"outputs":[{"name":"streamId","type":"uint256","internalType":"uint256"}],"stateMutability":"nonpayable"},{"type":"function","name":"cancelGhoStream","inputs":[{"name":"streamId","type":"uint256","internalType":"uint256"}],"outputs":[],"stateMutability":"nonpayable"},{"type":"function","name":"deposit","inputs":[{"name":"token","type":"address","internalType":"contract IERC20"},{"name":"amount","type":"uint256","internalType":"uint256"}],"outputs":[],"stateMutability":"nonpayable"},{"type":"function","name":"distributeFeesToTreasury","inputs":[],"outputs":[],"stateMutability":"nonpayable"},{"type":"function","name":"getBorrowerStreamIds","inputs":[{"name":"borrower","type":"address","internalType":"address"}],"outputs":[{"name":"streamIds","type":"uint256[]","internalType":"uint256[]"}],"stateMutability":"view"},{"type":"function","name":"getGhoTreasury","inputs":[],"outputs":[{"name":"","type":"address","internalType":"address"}],"stateMutability":"view"},{"type":"function","name":"owner","inputs":[],"outputs":[{"name":"","type":"address","internalType":"address"}],"stateMutability":"view"},{"type":"function","name":"renounceOwnership","inputs":[],"outputs":[],"stateMutability":"nonpayable"},{"type":"function","name":"transferOwnership","inputs":[{"name":"newOwner","type":"address","internalType":"address"}],"outputs":[],"stateMutability":"nonpayable"},{"type":"function","name":"updateGhoTreasury","inputs":[{"name":"newGhoTreasury","type":"address","internalType":"address"}],"outputs":[],"stateMutability":"nonpayable"},{"type":"function","name":"withdraw","inputs":[{"name":"token","type":"address","internalType":"contract IERC20"},{"name":"amount","type":"uint256","internalType":"uint256"}],"outputs":[],"stateMutability":"nonpayable"},{"type":"event","name":"FeesDistributedToTreasury","inputs":[{"name":"ghoTreasury","type":"address","indexed":true,"internalType":"address"},{"name":"asset","type":"address","indexed":true,"internalType":"address"},{"name":"amount","type":"uint256","indexed":false,"internalType":"uint256"}],"anonymous":false},{"type":"event","name":"GhoTreasuryUpdated","inputs":[{"name":"oldGhoTreasury","type":"address","indexed":true,"internalType":"address"},{"name":"newGhoTreasury","type":"address","indexed":true,"internalType":"address"}],"anonymous":false},{"type":"event","name":"OwnershipTransferred","inputs":[{"name":"previousOwner","type":"address","indexed":true,"internalType":"address"},{"name":"newOwner","type":"address","indexed":true,"internalType":"address"}],"anonymous":false},{"type":"error","name":"OwnableInvalidOwner","inputs":[{"name":"owner","type":"address","internalType":"address"}]},{"type":"error","name":"OwnableUnauthorizedAccount","inputs":[{"name":"account","type":"address","internalType":"address"}]}],"bytecode":{"object":"0x60c06040527378ab1a9c913107d0f989f7802c5981123fb9ba4f608052737a43f8a888fa15e68c103e18b0439eb1e98e430160a0523480156200004157600080fd5b506040516200192c3803806200192c8339810160408190526200006491620002da565b33806200008c57604051631e4fbdf760e01b8152600060048201526024015b60405180910390fd5b620000978162000180565b508051825114620000dd5760405162461bcd60e51b815260206004820152600f60248201526e098cadccee8d040dad2e6dac2e8c6d608b1b604482015260640162000083565b600180546001600160a01b0319163317905560005b82518110156200017757818181518110620001115762000111620003ac565b602002602001015160026000858481518110620001325762000132620003ac565b6020908102919091018101516001600160a01b0390811683529082019290925260400160002080546001600160a01b03191692909116919091179055600101620000f2565b505050620003c2565b600080546001600160a01b038381166001600160a01b0319831681178455604051919092169283917f8be0079c531659141344cd1fd0a4f28419497f9722a3daafe3b4186f6b6457e09190a35050565b634e487b7160e01b600052604160045260246000fd5b604051601f8201601f191681016001600160401b0381118282101715620002115762000211620001d0565b604052919050565b60006001600160401b03821115620002355762000235620001d0565b5060051b60200190565b6001600160a01b03811681146200025557600080fd5b50565b600082601f8301126200026a57600080fd5b81516020620002836200027d8362000219565b620001e6565b8083825260208201915060208460051b870101935086841115620002a657600080fd5b602086015b84811015620002cf578051620002c1816200023f565b8352918301918301620002ab565b509695505050505050565b60008060408385031215620002ee57600080fd5b82516001600160401b03808211156200030657600080fd5b818501915085601f8301126200031b57600080fd5b815160206200032e6200027d8362000219565b82815260059290921b840181019181810190898411156200034e57600080fd5b948201945b838610156200037957855162000369816200023f565b8252948201949082019062000353565b918801519196509093505050808211156200039357600080fd5b50620003a28582860162000258565b9150509250929050565b634e487b7160e01b600052603260045260246000fd5b60805160a0516114f06200043c600039600081816101dc015281816105a7015281816106490152818161080d015281816109ea01526110100152600081816101b50152818161072f0152818161095301528181610a2a01528181610b4901528181610c1b01528181610ca90152610f7201526114f06000f3fe608060405234801561001057600080fd5b50600436106100ea5760003560e01c8063d61d58ac1161008c578063dc49a07b11610066578063dc49a07b1461023f578063e28178cc14610247578063f2fde38b14610265578063f3fef3a31461027857600080fd5b8063d61d58ac146101d7578063d6c5df2c146101fe578063d9643bed1461021e57600080fd5b8063715018a6116100c8578063715018a6146101775780638309dbe51461017f5780638da5cb5b14610192578063b8d008f3146101b057600080fd5b8063144f4dce146100ef5780631fde40bb1461014f57806347e7ef2414610164575b600080fd5b6101256100fd3660046110b5565b60026020526000908152604090205473ffffffffffffffffffffffffffffffffffffffff1681565b60405173ffffffffffffffffffffffffffffffffffffffff90911681526020015b60405180910390f35b61016261015d3660046110b5565b61028b565b005b6101626101723660046110d9565b61038c565b6101626104d7565b61016261018d366004611105565b6104eb565b60005473ffffffffffffffffffffffffffffffffffffffff16610125565b6101257f000000000000000000000000000000000000000000000000000000000000000081565b6101257f000000000000000000000000000000000000000000000000000000000000000081565b61021161020c3660046110b5565b61078f565b604051610146919061111e565b61023161022c366004611193565b610808565b604051908152602001610146565b610162610b18565b60015473ffffffffffffffffffffffffffffffffffffffff16610125565b6101626102733660046110b5565b610cfd565b6101626102863660046110d9565b610d61565b610293610e62565b73ffffffffffffffffffffffffffffffffffffffff8116610315576040517f08c379a000000000000000000000000000000000000000000000000000000000815260206004820152601660248201527f5a45524f5f414444524553535f4e4f545f56414c49440000000000000000000060448201526064015b60405180910390fd5b6001805473ffffffffffffffffffffffffffffffffffffffff8381167fffffffffffffffffffffffff0000000000000000000000000000000000000000831681179093556040519116919082907f13f4413d8d93a259bd6c10f35095371f30ed50f81a73407e52e9f02000d5d16b90600090a35050565b73ffffffffffffffffffffffffffffffffffffffff8281166000908152600260205260408082205490517fb3f1c93d000000000000000000000000000000000000000000000000000000008152336004820181905260248201526044810185905260648101929092529091169063b3f1c93d90608401600060405180830381600087803b15801561041c57600080fd5b505af1158015610430573d6000803e3d6000fd5b50506040517f23b872dd0000000000000000000000000000000000000000000000000000000081523360048201523060248201526044810184905273ffffffffffffffffffffffffffffffffffffffff851692506323b872dd91506064015b6020604051808303816000875af11580156104ae573d6000803e3d6000fd5b505050506040513d601f19601f820116820180604052508101906104d291906111f3565b505050565b6104df610e62565b6104e96000610eb5565b565b60008181526004602052604090205473ffffffffffffffffffffffffffffffffffffffff163314610578576040517f08c379a000000000000000000000000000000000000000000000000000000000815260206004820152600c60248201527f4e6f7420626f72726f7765720000000000000000000000000000000000000000604482015260640161030c565b6040517f40e58ee5000000000000000000000000000000000000000000000000000000008152600481018290527f000000000000000000000000000000000000000000000000000000000000000073ffffffffffffffffffffffffffffffffffffffff16906340e58ee590602401600060405180830381600087803b15801561060057600080fd5b505af1158015610614573d6000803e3d6000fd5b50506040517f894e9a0d00000000000000000000000000000000000000000000000000000000815260048101849052600092507f000000000000000000000000000000000000000000000000000000000000000073ffffffffffffffffffffffffffffffffffffffff16915063894e9a0d906024016101a060405180830381865afa1580156106a7573d6000803e3d6000fd5b505050506040513d601f19601f820116820180604052508101906106cb9190611314565b61014081015160409081015190517f42966c680000000000000000000000000000000000000000000000000000000081526fffffffffffffffffffffffffffffffff909116600482015290915073ffffffffffffffffffffffffffffffffffffffff7f000000000000000000000000000000000000000000000000000000000000000016906342966c6890602401600060405180830381600087803b15801561077357600080fd5b505af1158015610787573d6000803e3d6000fd5b505050505050565b73ffffffffffffffffffffffffffffffffffffffff81166000908152600360209081526040918290208054835181840281018401909452808452606093928301828280156107fc57602002820191906000526020600020905b8154815260200190600101908083116107e8575b50505050509050919050565b6000807f000000000000000000000000000000000000000000000000000000000000000073ffffffffffffffffffffffffffffffffffffffff16631e99d5696040518163ffffffff1660e01b8152600401602060405180830381865afa158015610876573d6000803e3d6000fd5b505050506040513d601f19601f8201168201806040525081019061089a91906113ef565b3360008181526003602090815260408083208054600181018255908452828420018590558483526004918290529182902080547fffffffffffffffffffffffff000000000000000000000000000000000000000016909317909255517f40c10f1900000000000000000000000000000000000000000000000000000000815230918101919091526fffffffffffffffffffffffffffffffff8716602482015290915073ffffffffffffffffffffffffffffffffffffffff7f000000000000000000000000000000000000000000000000000000000000000016906340c10f1990604401600060405180830381600087803b15801561099757600080fd5b505af11580156109ab573d6000803e3d6000fd5b50506040517f095ea7b300000000000000000000000000000000000000000000000000000000815273ffffffffffffffffffffffffffffffffffffffff7f0000000000000000000000000000000000000000000000000000000000000000811660048301526fffffffffffffffffffffffffffffffff891660248301527f000000000000000000000000000000000000000000000000000000000000000016925063095ea7b391506044016020604051808303816000875af1158015610a75573d6000803e3d6000fd5b505050506040513d601f19601f82011682018060405250810190610a9991906111f3565b50610aa5858585610f2a565b9150808214610b10576040517f08c379a000000000000000000000000000000000000000000000000000000000815260206004820152601160248201527f53747265616d4964206d69736d61746368000000000000000000000000000000604482015260640161030c565b509392505050565b6040517f70a082310000000000000000000000000000000000000000000000000000000081523060048201526000907f000000000000000000000000000000000000000000000000000000000000000073ffffffffffffffffffffffffffffffffffffffff16906370a0823190602401602060405180830381865afa158015610ba5573d6000803e3d6000fd5b505050506040513d601f19601f82011682018060405250810190610bc991906113ef565b6001546040517fa9059cbb00000000000000000000000000000000000000000000000000000000815273ffffffffffffffffffffffffffffffffffffffff9182166004820152602481018390529192507f0000000000000000000000000000000000000000000000000000000000000000169063a9059cbb906044016020604051808303816000875af1158015610c64573d6000803e3d6000fd5b505050506040513d601f19601f82011682018060405250810190610c8891906111f3565b5060015460405182815273ffffffffffffffffffffffffffffffffffffffff7f000000000000000000000000000000000000000000000000000000000000000081169216907fb29fcda740927812f5a71075b62e132bead3769a455319c29b9a1cc461a654759060200160405180910390a350565b610d05610e62565b73ffffffffffffffffffffffffffffffffffffffff8116610d55576040517f1e4fbdf70000000000000000000000000000000000000000000000000000000081526000600482015260240161030c565b610d5e81610eb5565b50565b73ffffffffffffffffffffffffffffffffffffffff8281166000908152600260205260408082205490517fd7020d0a000000000000000000000000000000000000000000000000000000008152336004820181905260248201526044810185905260648101929092529091169063d7020d0a90608401600060405180830381600087803b158015610df157600080fd5b505af1158015610e05573d6000803e3d6000fd5b50506040517fa9059cbb0000000000000000000000000000000000000000000000000000000081523360048201526024810184905273ffffffffffffffffffffffffffffffffffffffff8516925063a9059cbb915060440161048f565b60005473ffffffffffffffffffffffffffffffffffffffff1633146104e9576040517f118cdaa700000000000000000000000000000000000000000000000000000000815233600482015260240161030c565b6000805473ffffffffffffffffffffffffffffffffffffffff8381167fffffffffffffffffffffffff0000000000000000000000000000000000000000831681178455604051919092169283917f8be0079c531659141344cd1fd0a4f28419497f9722a3daafe3b4186f6b6457e09190a35050565b604080516101008101825230815273ffffffffffffffffffffffffffffffffffffffff8381166020808401919091526fffffffffffffffffffffffffffffffff8716838501527f00000000000000000000000000000000000000000000000000000000000000008216606084015260016080840181905260a0840181905284518086018652600080825264ffffffffff89168285015260c086019190915285518087018752915484168252662386f26fc100009282019290925260e084015292517fab167ccc0000000000000000000000000000000000000000000000000000000081527f00000000000000000000000000000000000000000000000000000000000000009091169063ab167ccc90611047908490600401611408565b6020604051808303816000875af1158015611066573d6000803e3d6000fd5b505050506040513d601f19601f8201168201806040525081019061108a91906113ef565b95945050505050565b73ffffffffffffffffffffffffffffffffffffffff81168114610d5e57600080fd5b6000602082840312156110c757600080fd5b81356110d281611093565b9392505050565b600080604083850312156110ec57600080fd5b82356110f781611093565b946020939093013593505050565b60006020828403121561111757600080fd5b5035919050565b6020808252825182820181905260009190848201906040850190845b818110156111565783518352928401929184019160010161113a565b50909695505050505050565b6fffffffffffffffffffffffffffffffff81168114610d5e57600080fd5b64ffffffffff81168114610d5e57600080fd5b6000806000606084860312156111a857600080fd5b83356111b381611162565b925060208401356111c381611180565b915060408401356111d381611093565b809150509250925092565b805180151581146111ee57600080fd5b919050565b60006020828403121561120557600080fd5b6110d2826111de565b604051610160810167ffffffffffffffff81118282101715611259577f4e487b7100000000000000000000000000000000000000000000000000000000600052604160045260246000fd5b60405290565b80516111ee81611093565b80516111ee81611180565b60006060828403121561128757600080fd5b6040516060810181811067ffffffffffffffff821117156112d1577f4e487b7100000000000000000000000000000000000000000000000000000000600052604160045260246000fd5b806040525080915082516112e481611162565b815260208301516112f481611162565b6020820152604083015161130781611162565b6040919091015292915050565b60006101a0828403121561132757600080fd5b61132f61120e565b6113388361125f565b81526113466020840161126a565b60208201526113576040840161126a565b6040820152611368606084016111de565b6060820152611379608084016111de565b608082015261138a60a0840161125f565b60a082015261139b60c0840161126a565b60c08201526113ac60e084016111de565b60e08201526101006113bf8185016111de565b908201526101206113d18482016111de565b908201526101406113e485858301611275565b908201529392505050565b60006020828403121561140157600080fd5b5051919050565b60006101408201905073ffffffffffffffffffffffffffffffffffffffff8084511683528060208501511660208401526fffffffffffffffffffffffffffffffff6040850151166040840152806060850151166060840152506080830151611474608084018215159052565b5060a083015161148860a084018215159052565b5060c08301516114af60c0840182805164ffffffffff908116835260209182015116910152565b5060e09290920151805173ffffffffffffffffffffffffffffffffffffffff1661010083015260200151610120909101529056fea164736f6c6343000817000a","linkReferences":{}},"methodIdentifiers":{"GHO()":"b8d008f3","SABLIER_LOCKUP_LINEAR()":"d61d58ac","aTokenOf(address)":"144f4dce","borrowGhoThroughStream(uint128,uint40,address)":"d9643bed","cancelGhoStream(uint256)":"8309dbe5","deposit(address,uint256)":"47e7ef24","distributeFeesToTreasury()":"dc49a07b","getBorrowerStreamIds(address)":"d6c5df2c","getGhoTreasury()":"e28178cc","owner()":"8da5cb5b","renounceOwnership()":"715018a6","transferOwnership(address)":"f2fde38b","updateGhoTreasury(address)":"1fde40bb","withdraw(address,uint256)":"f3fef3a3"},"id":93}