{
  "abi": [
    {
      "type": "constructor",
      "inputs": [
        {
          "name": "tokens",
          "type": "address[]",
          "internalType": "contract IERC20[]"
        },
        {
          "name": "aTokens",
          "type": "address[]",
          "internalType": "contract IAToken[]"
        }
      ],
      "stateMutability": "nonpayable"
    },
    {
      "type": "function",
      "name": "GHO",
      "inputs": [],
      "outputs": [
        {
          "name": "",
          "type": "address",
          "internalType": "contract IGhoToken"
        }
      ],
      "stateMutability": "view"
    },
    {
      "type": "function",
      "name": "SABLIER_LOCKUP_LINEAR",
      "inputs": [],
      "outputs": [
        {
          "name": "",
          "type": "address",
          "internalType": "contract ISablierV2LockupLinear"
        }
      ],
      "stateMutability": "view"
    },
    {
      "type": "function",
      "name": "aTokenOf",
      "inputs": [
        {
          "name": "token",
          "type": "address",
          "internalType": "contract IERC20"
        }
      ],
      "outputs": [
        {
          "name": "aToken",
          "type": "address",
          "internalType": "contract IAToken"
        }
      ],
      "stateMutability": "view"
    },
    {
      "type": "function",
      "name": "borrowGhoThroughStream",
      "inputs": [
        {
          "name": "amount",
          "type": "uint128",
          "internalType": "uint128"
        },
        {
          "name": "streamDuration",
          "type": "uint40",
          "internalType": "uint40"
        },
        {
          "name": "streamRecipient",
          "type": "address",
          "internalType": "address"
        }
      ],
      "outputs": [],
      "stateMutability": "nonpayable"
    },
    {
      "type": "function",
      "name": "cancelGhoStream",
      "inputs": [
        {
          "name": "streamId",
          "type": "uint256",
          "internalType": "uint256"
        }
      ],
      "outputs": [],
      "stateMutability": "nonpayable"
    },
    {
      "type": "function",
      "name": "deposit",
      "inputs": [
        {
          "name": "token",
          "type": "address",
          "internalType": "contract IERC20"
        },
        {
          "name": "amount",
          "type": "uint256",
          "internalType": "uint256"
        }
      ],
      "outputs": [],
      "stateMutability": "nonpayable"
    },
    {
      "type": "function",
      "name": "getBorrowerStreamIds",
      "inputs": [
        {
          "name": "borrower",
          "type": "address",
          "internalType": "address"
        }
      ],
      "outputs": [
        {
          "name": "streamIds",
          "type": "uint256[]",
          "internalType": "uint256[]"
        }
      ],
      "stateMutability": "view"
    },
    {
      "type": "function",
      "name": "withdraw",
      "inputs": [
        {
          "name": "token",
          "type": "address",
          "internalType": "contract IERC20"
        },
        {
          "name": "amount",
          "type": "uint256",
          "internalType": "uint256"
        }
      ],
      "outputs": [],
      "stateMutability": "nonpayable"
    }
  ],
  "bytecode": {
    "object": "0x60c06040527378ab1a9c913107d0f989f7802c5981123fb9ba4f608052737a43f8a888fa15e68c103e18b0439eb1e98e430160a0523480156200004157600080fd5b506040516200155938038062001559833981016040819052620000649162000246565b8051825114620000ac5760405162461bcd60e51b815260206004820152600f60248201526e098cadccee8d040dad2e6dac2e8c6d608b1b604482015260640160405180910390fd5b60005b82518110156200013357818181518110620000ce57620000ce62000318565b6020026020010151600080858481518110620000ee57620000ee62000318565b6020908102919091018101516001600160a01b0390811683529082019290925260400160002080546001600160a01b03191692909116919091179055600101620000af565b5050506200032e565b634e487b7160e01b600052604160045260246000fd5b604051601f8201601f191681016001600160401b03811182821017156200017d576200017d6200013c565b604052919050565b60006001600160401b03821115620001a157620001a16200013c565b5060051b60200190565b6001600160a01b0381168114620001c157600080fd5b50565b600082601f830112620001d657600080fd5b81516020620001ef620001e98362000185565b62000152565b8083825260208201915060208460051b8701019350868411156200021257600080fd5b602086015b848110156200023b5780516200022d81620001ab565b835291830191830162000217565b509695505050505050565b600080604083850312156200025a57600080fd5b82516001600160401b03808211156200027257600080fd5b818501915085601f8301126200028757600080fd5b815160206200029a620001e98362000185565b82815260059290921b84018101918181019089841115620002ba57600080fd5b948201945b83861015620002e5578551620002d581620001ab565b82529482019490820190620002bf565b91880151919650909350505080821115620002ff57600080fd5b506200030e85828601620001c4565b9150509250929050565b634e487b7160e01b600052603260045260246000fd5b60805160a0516111b8620003a160003960008181610141015281816103b501528181610457015281816105d8015281816107aa01528181610a370152610c3301526000818161011a0152818161053d015281816106fe015281816107ea01528181610a7a0152610b4a01526111b86000f3fe608060405234801561001057600080fd5b50600436106100885760003560e01c8063d61d58ac1161005b578063d61d58ac1461013c578063d6c5df2c14610163578063d9643bed14610183578063f3fef3a31461019657600080fd5b8063144f4dce1461008d57806347e7ef24146100ed5780638309dbe514610102578063b8d008f314610115575b600080fd5b6100c361009b366004610d84565b60006020819052908152604090205473ffffffffffffffffffffffffffffffffffffffff1681565b60405173ffffffffffffffffffffffffffffffffffffffff90911681526020015b60405180910390f35b6101006100fb366004610da1565b6101a9565b005b610100610110366004610dcd565b6102f4565b6100c37f000000000000000000000000000000000000000000000000000000000000000081565b6100c37f000000000000000000000000000000000000000000000000000000000000000081565b610176610171366004610d84565b61059d565b6040516100e49190610de6565b610100610191366004610e5b565b6105d4565b6101006101a4366004610da1565b6108d9565b73ffffffffffffffffffffffffffffffffffffffff8281166000908152602081905260408082205490517fb3f1c93d000000000000000000000000000000000000000000000000000000008152336004820181905260248201526044810185905260648101929092529091169063b3f1c93d90608401600060405180830381600087803b15801561023957600080fd5b505af115801561024d573d6000803e3d6000fd5b50506040517f23b872dd0000000000000000000000000000000000000000000000000000000081523360048201523060248201526044810184905273ffffffffffffffffffffffffffffffffffffffff851692506323b872dd91506064015b6020604051808303816000875af11580156102cb573d6000803e3d6000fd5b505050506040513d601f19601f820116820180604052508101906102ef9190610ebb565b505050565b60008181526002602052604090205473ffffffffffffffffffffffffffffffffffffffff163314610386576040517f08c379a000000000000000000000000000000000000000000000000000000000815260206004820152600c60248201527f4e6f7420626f72726f776572000000000000000000000000000000000000000060448201526064015b60405180910390fd5b6040517f40e58ee5000000000000000000000000000000000000000000000000000000008152600481018290527f000000000000000000000000000000000000000000000000000000000000000073ffffffffffffffffffffffffffffffffffffffff16906340e58ee590602401600060405180830381600087803b15801561040e57600080fd5b505af1158015610422573d6000803e3d6000fd5b50506040517f894e9a0d00000000000000000000000000000000000000000000000000000000815260048101849052600092507f000000000000000000000000000000000000000000000000000000000000000073ffffffffffffffffffffffffffffffffffffffff16915063894e9a0d906024016101a060405180830381865afa1580156104b5573d6000803e3d6000fd5b505050506040513d601f19601f820116820180604052508101906104d99190610fdc565b61014081015160409081015190517f42966c680000000000000000000000000000000000000000000000000000000081526fffffffffffffffffffffffffffffffff909116600482015290915073ffffffffffffffffffffffffffffffffffffffff7f000000000000000000000000000000000000000000000000000000000000000016906342966c6890602401600060405180830381600087803b15801561058157600080fd5b505af1158015610595573d6000803e3d6000fd5b505050505050565b73ffffffffffffffffffffffffffffffffffffffff811660009081526001602052604090206060906105ce906109da565b92915050565b60007f000000000000000000000000000000000000000000000000000000000000000073ffffffffffffffffffffffffffffffffffffffff16631e99d5696040518163ffffffff1660e01b8152600401602060405180830381865afa158015610641573d6000803e3d6000fd5b505050506040513d601f19601f8201168201806040525081019061066591906110b7565b33600090815260016020526040902090915061068190826109ee565b506000818152600260205260409081902080547fffffffffffffffffffffffff00000000000000000000000000000000000000001633179055517f40c10f190000000000000000000000000000000000000000000000000000000081523060048201526fffffffffffffffffffffffffffffffff851660248201527f000000000000000000000000000000000000000000000000000000000000000073ffffffffffffffffffffffffffffffffffffffff16906340c10f1990604401600060405180830381600087803b15801561075757600080fd5b505af115801561076b573d6000803e3d6000fd5b50506040517f095ea7b300000000000000000000000000000000000000000000000000000000815273ffffffffffffffffffffffffffffffffffffffff7f0000000000000000000000000000000000000000000000000000000000000000811660048301526fffffffffffffffffffffffffffffffff881660248301527f000000000000000000000000000000000000000000000000000000000000000016925063095ea7b391506044016020604051808303816000875af1158015610835573d6000803e3d6000fd5b505050506040513d601f19601f820116820180604052508101906108599190610ebb565b5060006108678585856109fa565b90508181146108d2576040517f08c379a000000000000000000000000000000000000000000000000000000000815260206004820152601160248201527f53747265616d4964206d69736d61746368000000000000000000000000000000604482015260640161037d565b5050505050565b73ffffffffffffffffffffffffffffffffffffffff8281166000908152602081905260408082205490517fd7020d0a000000000000000000000000000000000000000000000000000000008152336004820181905260248201526044810185905260648101929092529091169063d7020d0a90608401600060405180830381600087803b15801561096957600080fd5b505af115801561097d573d6000803e3d6000fd5b50506040517fa9059cbb0000000000000000000000000000000000000000000000000000000081523360048201526024810184905273ffffffffffffffffffffffffffffffffffffffff8516925063a9059cbb91506044016102ac565b606060006109e783610cb4565b9392505050565b60006109e78383610d10565b6040517f095ea7b300000000000000000000000000000000000000000000000000000000815273ffffffffffffffffffffffffffffffffffffffff7f0000000000000000000000000000000000000000000000000000000000000000811660048301526fffffffffffffffffffffffffffffffff851660248301526000917f00000000000000000000000000000000000000000000000000000000000000009091169063095ea7b3906044016020604051808303816000875af1158015610ac5573d6000803e3d6000fd5b505050506040513d601f19601f82011682018060405250810190610ae99190610ebb565b5060006040518061010001604052803073ffffffffffffffffffffffffffffffffffffffff1681526020018473ffffffffffffffffffffffffffffffffffffffff168152602001866fffffffffffffffffffffffffffffffff1681526020017f000000000000000000000000000000000000000000000000000000000000000073ffffffffffffffffffffffffffffffffffffffff1681526020016001151581526020016001151581526020016040518060400160405280600064ffffffffff1681526020018764ffffffffff1681525081526020016040518060400160405280600073ffffffffffffffffffffffffffffffffffffffff168152602001610bef600090565b905290526040517fab167ccc00000000000000000000000000000000000000000000000000000000815290915073ffffffffffffffffffffffffffffffffffffffff7f0000000000000000000000000000000000000000000000000000000000000000169063ab167ccc90610c689084906004016110d0565b6020604051808303816000875af1158015610c87573d6000803e3d6000fd5b505050506040513d601f19601f82011682018060405250810190610cab91906110b7565b95945050505050565b606081600001805480602002602001604051908101604052809291908181526020018280548015610d0457602002820191906000526020600020905b815481526020019060010190808311610cf0575b50505050509050919050565b6000818152600183016020526040812054610d57575081546001818101845560008481526020808220909301849055845484825282860190935260409020919091556105ce565b5060006105ce565b73ffffffffffffffffffffffffffffffffffffffff81168114610d8157600080fd5b50565b600060208284031215610d9657600080fd5b81356109e781610d5f565b60008060408385031215610db457600080fd5b8235610dbf81610d5f565b946020939093013593505050565b600060208284031215610ddf57600080fd5b5035919050565b6020808252825182820181905260009190848201906040850190845b81811015610e1e57835183529284019291840191600101610e02565b50909695505050505050565b6fffffffffffffffffffffffffffffffff81168114610d8157600080fd5b64ffffffffff81168114610d8157600080fd5b600080600060608486031215610e7057600080fd5b8335610e7b81610e2a565b92506020840135610e8b81610e48565b91506040840135610e9b81610d5f565b809150509250925092565b80518015158114610eb657600080fd5b919050565b600060208284031215610ecd57600080fd5b6109e782610ea6565b604051610160810167ffffffffffffffff81118282101715610f21577f4e487b7100000000000000000000000000000000000000000000000000000000600052604160045260246000fd5b60405290565b8051610eb681610d5f565b8051610eb681610e48565b600060608284031215610f4f57600080fd5b6040516060810181811067ffffffffffffffff82111715610f99577f4e487b7100000000000000000000000000000000000000000000000000000000600052604160045260246000fd5b80604052508091508251610fac81610e2a565b81526020830151610fbc81610e2a565b60208201526040830151610fcf81610e2a565b6040919091015292915050565b60006101a08284031215610fef57600080fd5b610ff7610ed6565b61100083610f27565b815261100e60208401610f32565b602082015261101f60408401610f32565b604082015261103060608401610ea6565b606082015261104160808401610ea6565b608082015261105260a08401610f27565b60a082015261106360c08401610f32565b60c082015261107460e08401610ea6565b60e0820152610100611087818501610ea6565b90820152610120611099848201610ea6565b908201526101406110ac85858301610f3d565b908201529392505050565b6000602082840312156110c957600080fd5b5051919050565b60006101408201905073ffffffffffffffffffffffffffffffffffffffff8084511683528060208501511660208401526fffffffffffffffffffffffffffffffff604085015116604084015280606085015116606084015250608083015161113c608084018215159052565b5060a083015161115060a084018215159052565b5060c083015161117760c0840182805164ffffffffff908116835260209182015116910152565b5060e09290920151805173ffffffffffffffffffffffffffffffffffffffff1661010083015260200151610120909101529056fea164736f6c6343000817000a",
    "linkReferences": {}
  },
  "methodIdentifiers": {
    "GHO()": "b8d008f3",
    "SABLIER_LOCKUP_LINEAR()": "d61d58ac",
    "aTokenOf(address)": "144f4dce",
    "borrowGhoThroughStream(uint128,uint40,address)": "d9643bed",
    "cancelGhoStream(uint256)": "8309dbe5",
    "deposit(address,uint256)": "47e7ef24",
    "getBorrowerStreamIds(address)": "d6c5df2c",
    "withdraw(address,uint256)": "f3fef3a3"
  },
  "id": 93
}